{
    "contractName": "BloqBallLottery",
    "abi": [
        {
            "inputs": [],
            "stateMutability": "nonpayable",
            "type": "constructor"
        },
        {
            "anonymous": false,
            "inputs": [
                {
                    "indexed": true,
                    "internalType": "uint256",
                    "name": "lotteryId",
                    "type": "uint256"
                },
                {
                    "indexed": false,
                    "internalType": "uint256",
                    "name": "firstTicketIdNextLottery",
                    "type": "uint256"
                }
            ],
            "name": "LotteryClose",
            "type": "event"
        },
        {
            "anonymous": false,
            "inputs": [
                {
                    "indexed": true,
                    "internalType": "uint256",
                    "name": "lotteryId",
                    "type": "uint256"
                },
                {
                    "indexed": false,
                    "internalType": "uint256",
                    "name": "finalNumber",
                    "type": "uint256"
                }
            ],
            "name": "LotteryNumberDrawn",
            "type": "event"
        },
        {
            "anonymous": false,
            "inputs": [
                {
                    "indexed": true,
                    "internalType": "uint256",
                    "name": "lotteryId",
                    "type": "uint256"
                },
                {
                    "indexed": false,
                    "internalType": "uint256",
                    "name": "startTime",
                    "type": "uint256"
                },
                {
                    "indexed": false,
                    "internalType": "uint256",
                    "name": "endTime",
                    "type": "uint256"
                },
                {
                    "indexed": false,
                    "internalType": "uint256",
                    "name": "firstTicketId",
                    "type": "uint256"
                }
            ],
            "name": "LotteryOpen",
            "type": "event"
        },
        {
            "anonymous": false,
            "inputs": [
                {
                    "indexed": false,
                    "internalType": "address",
                    "name": "operator",
                    "type": "address"
                }
            ],
            "name": "NewOperatorAddresses",
            "type": "event"
        },
        {
            "anonymous": false,
            "inputs": [
                {
                    "indexed": true,
                    "internalType": "address",
                    "name": "randomGenerator",
                    "type": "address"
                }
            ],
            "name": "NewRandomGenerator",
            "type": "event"
        },
        {
            "anonymous": false,
            "inputs": [
                {
                    "indexed": true,
                    "internalType": "address",
                    "name": "previousOwner",
                    "type": "address"
                },
                {
                    "indexed": true,
                    "internalType": "address",
                    "name": "newOwner",
                    "type": "address"
                }
            ],
            "name": "OwnershipTransferred",
            "type": "event"
        },
        {
            "anonymous": false,
            "inputs": [
                {
                    "indexed": true,
                    "internalType": "address",
                    "name": "claimer",
                    "type": "address"
                },
                {
                    "indexed": false,
                    "internalType": "uint256",
                    "name": "amount",
                    "type": "uint256"
                },
                {
                    "indexed": true,
                    "internalType": "uint256",
                    "name": "lotteryId",
                    "type": "uint256"
                },
                {
                    "indexed": false,
                    "internalType": "uint256",
                    "name": "numberTickets",
                    "type": "uint256"
                }
            ],
            "name": "TicketsClaim",
            "type": "event"
        },
        {
            "anonymous": false,
            "inputs": [
                {
                    "indexed": true,
                    "internalType": "address",
                    "name": "buyer",
                    "type": "address"
                },
                {
                    "indexed": true,
                    "internalType": "uint256",
                    "name": "lotteryId",
                    "type": "uint256"
                }
            ],
            "name": "TicketsPurchase",
            "type": "event"
        },
        {
            "inputs": [],
            "name": "FIRST_THIRD_PLACE",
            "outputs": [
                {
                    "internalType": "uint256",
                    "name": "",
                    "type": "uint256"
                }
            ],
            "stateMutability": "view",
            "type": "function"
        },
        {
            "inputs": [],
            "name": "WINNING_PLACE",
            "outputs": [
                {
                    "internalType": "uint256",
                    "name": "",
                    "type": "uint256"
                }
            ],
            "stateMutability": "view",
            "type": "function"
        },
        {
            "inputs": [
                {
                    "internalType": "address",
                    "name": "",
                    "type": "address"
                },
                {
                    "internalType": "uint256",
                    "name": "",
                    "type": "uint256"
                },
                {
                    "internalType": "uint256",
                    "name": "",
                    "type": "uint256"
                }
            ],
            "name": "_isUserTicketIdsPerLotteryId",
            "outputs": [
                {
                    "internalType": "bool",
                    "name": "",
                    "type": "bool"
                }
            ],
            "stateMutability": "view",
            "type": "function"
        },
        {
            "inputs": [
                {
                    "internalType": "uint256",
                    "name": "",
                    "type": "uint256"
                },
                {
                    "internalType": "uint256",
                    "name": "",
                    "type": "uint256"
                }
            ],
            "name": "_numberTicketsPerLotteryId",
            "outputs": [
                {
                    "internalType": "uint256",
                    "name": "",
                    "type": "uint256"
                }
            ],
            "stateMutability": "view",
            "type": "function"
        },
        {
            "inputs": [
                {
                    "internalType": "address",
                    "name": "",
                    "type": "address"
                },
                {
                    "internalType": "uint256",
                    "name": "",
                    "type": "uint256"
                },
                {
                    "internalType": "uint256",
                    "name": "",
                    "type": "uint256"
                }
            ],
            "name": "_userTicketIdsPerLotteryId",
            "outputs": [
                {
                    "internalType": "uint256",
                    "name": "",
                    "type": "uint256"
                }
            ],
            "stateMutability": "view",
            "type": "function"
        },
        {
            "inputs": [
                {
                    "internalType": "address",
                    "name": "",
                    "type": "address"
                },
                {
                    "internalType": "uint256",
                    "name": "",
                    "type": "uint256"
                }
            ],
            "name": "_userWiningRewardsPerLotteryId",
            "outputs": [
                {
                    "internalType": "uint256",
                    "name": "",
                    "type": "uint256"
                }
            ],
            "stateMutability": "view",
            "type": "function"
        },
        {
            "inputs": [
                {
                    "internalType": "uint256",
                    "name": "_lotteryId",
                    "type": "uint256"
                },
                {
                    "internalType": "uint256",
                    "name": "_ticketNumber",
                    "type": "uint256"
                },
                {
                    "internalType": "uint256",
                    "name": "nKind",
                    "type": "uint256"
                }
            ],
            "name": "buyTickets",
            "outputs": [],
            "stateMutability": "nonpayable",
            "type": "function"
        },
        {
            "inputs": [
                {
                    "internalType": "address",
                    "name": "_randomGeneratorAddress",
                    "type": "address"
                }
            ],
            "name": "changeRandomGenerator",
            "outputs": [],
            "stateMutability": "nonpayable",
            "type": "function"
        },
        {
            "inputs": [],
            "name": "checkLotteryState",
            "outputs": [],
            "stateMutability": "nonpayable",
            "type": "function"
        },
        {
            "inputs": [
                {
                    "internalType": "uint256",
                    "name": "_lotteryId",
                    "type": "uint256"
                },
                {
                    "internalType": "uint256[]",
                    "name": "_ticketIds",
                    "type": "uint256[]"
                },
                {
                    "internalType": "uint32[]",
                    "name": "_brackets",
                    "type": "uint32[]"
                }
            ],
            "name": "claimTickets",
            "outputs": [],
            "stateMutability": "nonpayable",
            "type": "function"
        },
        {
            "inputs": [
                {
                    "internalType": "uint256",
                    "name": "_lotteryId",
                    "type": "uint256"
                }
            ],
            "name": "closeLottery",
            "outputs": [],
            "stateMutability": "nonpayable",
            "type": "function"
        },
        {
            "inputs": [],
            "name": "currentLotteryId",
            "outputs": [
                {
                    "internalType": "uint256",
                    "name": "",
                    "type": "uint256"
                }
            ],
            "stateMutability": "view",
            "type": "function"
        },
        {
            "inputs": [],
            "name": "currentTicketId",
            "outputs": [
                {
                    "internalType": "uint256",
                    "name": "",
                    "type": "uint256"
                }
            ],
            "stateMutability": "view",
            "type": "function"
        },
        {
            "inputs": [
                {
                    "internalType": "uint256",
                    "name": "_lotteryId",
                    "type": "uint256"
                }
            ],
            "name": "drawFinalNumberAndMakeLotteryClaimable",
            "outputs": [],
            "stateMutability": "nonpayable",
            "type": "function"
        },
        {
            "inputs": [
                {
                    "internalType": "uint256",
                    "name": "_lotteryId",
                    "type": "uint256"
                },
                {
                    "internalType": "address",
                    "name": "_account",
                    "type": "address"
                }
            ],
            "name": "getBracketsOfMatching",
            "outputs": [
                {
                    "internalType": "uint256[]",
                    "name": "new_ticketIds",
                    "type": "uint256[]"
                },
                {
                    "internalType": "uint256[]",
                    "name": "new_brackets",
                    "type": "uint256[]"
                },
                {
                    "internalType": "uint256",
                    "name": "pendingRewards",
                    "type": "uint256"
                }
            ],
            "stateMutability": "view",
            "type": "function"
        },
        {
            "inputs": [],
            "name": "getOperator",
            "outputs": [
                {
                    "internalType": "address",
                    "name": "",
                    "type": "address"
                }
            ],
            "stateMutability": "view",
            "type": "function"
        },
        {
            "inputs": [],
            "name": "operatorAddress",
            "outputs": [
                {
                    "internalType": "address",
                    "name": "",
                    "type": "address"
                }
            ],
            "stateMutability": "view",
            "type": "function"
        },
        {
            "inputs": [],
            "name": "owner",
            "outputs": [
                {
                    "internalType": "address",
                    "name": "",
                    "type": "address"
                }
            ],
            "stateMutability": "view",
            "type": "function"
        },
        {
            "inputs": [],
            "name": "ownerTransferAmountRate",
            "outputs": [
                {
                    "internalType": "uint256",
                    "name": "",
                    "type": "uint256"
                }
            ],
            "stateMutability": "view",
            "type": "function"
        },
        {
            "inputs": [],
            "name": "randomGenerator",
            "outputs": [
                {
                    "internalType": "contract IRandomNumberGenerator",
                    "name": "",
                    "type": "address"
                }
            ],
            "stateMutability": "view",
            "type": "function"
        },
        {
            "inputs": [],
            "name": "renounceOwnership",
            "outputs": [],
            "stateMutability": "nonpayable",
            "type": "function"
        },
        {
            "inputs": [
                {
                    "internalType": "address",
                    "name": "_operatorAddress",
                    "type": "address"
                }
            ],
            "name": "setOperator",
            "outputs": [],
            "stateMutability": "nonpayable",
            "type": "function"
        },
        {
            "inputs": [
                {
                    "internalType": "address",
                    "name": "_randomGeneratorAddress",
                    "type": "address"
                }
            ],
            "name": "setRandomGenerator",
            "outputs": [],
            "stateMutability": "nonpayable",
            "type": "function"
        },
        {
            "inputs": [
                {
                    "internalType": "uint256",
                    "name": "_endTime",
                    "type": "uint256"
                },
                {
                    "internalType": "uint256[2]",
                    "name": "_priceTicketInBQB",
                    "type": "uint256[2]"
                },
                {
                    "internalType": "uint256[2]",
                    "name": "_rewardsBreakdown",
                    "type": "uint256[2]"
                }
            ],
            "name": "startLottery",
            "outputs": [],
            "stateMutability": "nonpayable",
            "type": "function"
        },
        {
            "inputs": [
                {
                    "internalType": "address",
                    "name": "newOwner",
                    "type": "address"
                }
            ],
            "name": "transferOwnership",
            "outputs": [],
            "stateMutability": "nonpayable",
            "type": "function"
        },
        {
            "inputs": [],
            "name": "viewCurrentLotteryId",
            "outputs": [
                {
                    "internalType": "uint256",
                    "name": "",
                    "type": "uint256"
                }
            ],
            "stateMutability": "view",
            "type": "function"
        },
        {
            "inputs": [
                {
                    "internalType": "uint256",
                    "name": "_lotteryId",
                    "type": "uint256"
                }
            ],
            "name": "viewLottery",
            "outputs": [
                {
                    "components": [
                        {
                            "internalType": "enum BloqBallLottery.Status",
                            "name": "status",
                            "type": "uint8"
                        },
                        {
                            "internalType": "uint256",
                            "name": "startTime",
                            "type": "uint256"
                        },
                        {
                            "internalType": "uint256",
                            "name": "endTime",
                            "type": "uint256"
                        },
                        {
                            "internalType": "uint256[2]",
                            "name": "priceTicketInBQB",
                            "type": "uint256[2]"
                        },
                        {
                            "internalType": "uint256[2]",
                            "name": "rewardsBreakdown",
                            "type": "uint256[2]"
                        },
                        {
                            "internalType": "uint256[2]",
                            "name": "BQBPerBracket",
                            "type": "uint256[2]"
                        },
                        {
                            "internalType": "uint256[2]",
                            "name": "countWinnersPerBracket",
                            "type": "uint256[2]"
                        },
                        {
                            "internalType": "uint256",
                            "name": "firstTicketId",
                            "type": "uint256"
                        },
                        {
                            "internalType": "uint256",
                            "name": "firstTicketIdNextLottery",
                            "type": "uint256"
                        },
                        {
                            "internalType": "uint256",
                            "name": "amountCollectedInBQB",
                            "type": "uint256"
                        },
                        {
                            "internalType": "uint256",
                            "name": "finalNumber",
                            "type": "uint256"
                        },
                        {
                            "internalType": "uint256",
                            "name": "amountOfPurchasedPeople",
                            "type": "uint256"
                        },
                        {
                            "internalType": "uint256",
                            "name": "amountOfNotClaimed",
                            "type": "uint256"
                        }
                    ],
                    "internalType": "struct BloqBallLottery.Lottery",
                    "name": "",
                    "type": "tuple"
                }
            ],
            "stateMutability": "view",
            "type": "function"
        },
        {
            "inputs": [
                {
                    "internalType": "uint256[]",
                    "name": "_ticketIds",
                    "type": "uint256[]"
                }
            ],
            "name": "viewNumbersAndStatusesForTicketIds",
            "outputs": [
                {
                    "internalType": "uint256[]",
                    "name": "",
                    "type": "uint256[]"
                },
                {
                    "internalType": "bool[]",
                    "name": "",
                    "type": "bool[]"
                }
            ],
            "stateMutability": "view",
            "type": "function"
        },
        {
            "inputs": [
                {
                    "internalType": "uint256",
                    "name": "_lotteryId",
                    "type": "uint256"
                },
                {
                    "internalType": "uint256",
                    "name": "_ticketId",
                    "type": "uint256"
                },
                {
                    "internalType": "uint32",
                    "name": "_bracket",
                    "type": "uint32"
                }
            ],
            "name": "viewRewardsForTicketId",
            "outputs": [
                {
                    "internalType": "uint256",
                    "name": "",
                    "type": "uint256"
                }
            ],
            "stateMutability": "view",
            "type": "function"
        }
    ],
    "bytecode": "60806040526107d06005556006805460ff191690553480156200002157600080fd5b50600160009081556200003362000087565b600180546001600160a01b0319166001600160a01b038316908117909155604051919250906000907f8be0079c531659141344cd1fd0a4f28419497f9722a3daafe3b4186f6b6457e0908290a3506200008b565b3390565b613696806200009b6000396000f3fe608060405234801561001057600080fd5b50600436106101cf5760003560e01c80638fc3539a11610104578063c9a450df116100a2578063e7f43c6811610071578063e7f43c681461039d578063ed17f8fe146103a5578063edd19b5d146103ad578063f2fde38b146103c0576101cf565b8063c9a450df1461035c578063cf17413b1461036f578063d635b35014610382578063dcbad90d14610395576101cf565b8063b0b5d608116100de578063b0b5d6081461030e578063b3ab15fb1461032e578063c76caf1014610341578063c914914f14610349576101cf565b80638fc3539a146102c757806398359fa1146102e85780639d8ca531146102fb576101cf565b80634bc19fee116101715780636c0d42851161014b5780636c0d42851461029c578063715018a6146102af57806380a06160146102b75780638da5cb5b146102bf576101cf565b80634bc19fee14610277578063686465b81461028c5780636be4097c14610294576101cf565b80632387217d116101ad5780632387217d146102345780632423807a1461023c5780632e530cae1461025c5780633ac71c6a1461026f576101cf565b8063127effb2146101d457806317b4e9d4146101f25780631ebb877214610214575b600080fd5b6101dc6103d3565b6040516101e99190612e72565b60405180910390f35b610205610200366004612c2e565b6103e2565b6040516101e993929190612ede565b610227610222366004612d0d565b610a6a565b6040516101e99190613410565b610227610a87565b61024f61024a366004612bfe565b610a8c565b6040516101e9919061334a565b61022761026a366004612d59565b610c3c565b610227610cd7565b61028a610285366004612ae2565b610cdc565b005b610227610d98565b610227610d9e565b6102276102aa366004612afc565b610da4565b61028a610dc1565b610227610e4a565b6101dc610e50565b6102da6102d5366004612b57565b610e5f565b6040516101e9929190612e86565b61028a6102f6366004612ae2565b611069565b61028a610309366004612bfe565b611236565b61032161031c366004612b25565b611428565b6040516101e99190612f14565b61028a61033c366004612ae2565b61144e565b610227611509565b61028a610357366004612c96565b61150f565b61028a61036a366004612d2e565b61184a565b61022761037d366004612b25565b611b40565b61028a610390366004612c59565b611b7e565b6101dc611e20565b6101dc611e34565b61028a611e43565b61028a6103bb366004612bfe565b6120de565b61028a6103ce366004612ae2565b612707565b6002546001600160a01b031681565b6001600160a01b0381166000908152600a60209081526040808320858452825280832080548251818502810185019093528083526060948594909384939092909183018282801561045257602002820191906000526020600020905b81548152602001906001019080831161043e575b505050506001600160a01b0387166000908152600a602090815260408083208b845290915281205492935090508167ffffffffffffffff8111156104a657634e487b7160e01b600052604160045260246000fd5b6040519080825280602002602001820160405280156104cf578160200160208202803683370190505b506000898152600760205260408120600e015491925060609182918290600a5b6007811115610599576105036001826135a2565b61050e906002613583565b61051990600a6134b5565b610523908561345b565b91506105306001826135a2565b61053b906002613583565b6105459083613583565b61054f90856135a2565b9350818361055e83600a6135a2565b8151811061057c57634e487b7160e01b600052603260045260246000fd5b602090810291909101015280610591816135b9565b9150506104ef565b506000805b88811015610830578681815181106105c657634e487b7160e01b600052603260045260246000fd5b6020026020010151151560011515141561061b5760008882815181106105fc57634e487b7160e01b600052603260045260246000fd5b602002602001019063ffffffff16908163ffffffff168152505061081e565b606486828151811061063d57634e487b7160e01b600052603260045260246000fd5b6020026020010151106106d0578360008151811061066b57634e487b7160e01b600052603260045260246000fd5b6020026020010151606461067f9190613583565b8314156106cb5760018882815181106106a857634e487b7160e01b600052603260045260246000fd5b63ffffffff90921660209283029190910190910152816106c7816135b9565b9250505b61081e565b836000815181106106f157634e487b7160e01b600052603260045260246000fd5b602002602001015186828151811061071957634e487b7160e01b600052603260045260246000fd5b6020026020010151148061077b57508360018151811061074957634e487b7160e01b600052603260045260246000fd5b602002602001015186828151811061077157634e487b7160e01b600052603260045260246000fd5b6020026020010151145b806107d45750836002815181106107a257634e487b7160e01b600052603260045260246000fd5b60200260200101518682815181106107ca57634e487b7160e01b600052603260045260246000fd5b6020026020010151145b1561081e5760028882815181106107fb57634e487b7160e01b600052603260045260246000fd5b63ffffffff909216602092830291909101909101528161081a816135b9565b9250505b80610828816135b9565b91505061059e565b508067ffffffffffffffff81111561085857634e487b7160e01b600052604160045260246000fd5b604051908082528060200260200182016040528015610881578160200160208202803683370190505b509a508067ffffffffffffffff8111156108ab57634e487b7160e01b600052604160045260246000fd5b6040519080825280602002602001820160405280156108d4578160200160208202803683370190505b509b506000905060005b88811015610a595787818151811061090657634e487b7160e01b600052603260045260246000fd5b602002602001015163ffffffff166000141561092157610a47565b87818151811061094157634e487b7160e01b600052603260045260246000fd5b602002602001015163ffffffff168c838151811061096f57634e487b7160e01b600052603260045260246000fd5b60200260200101818152505089818151811061099b57634e487b7160e01b600052603260045260246000fd5b60200260200101518d83815181106109c357634e487b7160e01b600052603260045260246000fd5b6020908102919091010152816109d8816135b9565b925050610a3a8f8b83815181106109ff57634e487b7160e01b600052603260045260246000fd5b60200260200101518a8481518110610a2757634e487b7160e01b600052603260045260246000fd5b602002602001015163ffffffff166127c8565b610a44908c613443565b9a505b80610a51816135b9565b9150506108de565b505050505050505050509250925092565b600960209081526000928352604080842090915290825290205481565b600281565b610a9461291b565b6000828152600760205260409081902081516101a081019092528054829060ff166003811115610ad457634e487b7160e01b600052602160045260246000fd5b6003811115610af357634e487b7160e01b600052602160045260246000fd5b8152602001600182015481526020016002820154815260200160038201600280602002604051908101604052809291908260028015610b47576020028201915b815481526020019060010190808311610b33575b5050509183525050604080518082019182905260209092019190600584019060029082845b815481526020019060010190808311610b6c575050509183525050604080518082019182905260209092019190600784019060029082845b815481526020019060010190808311610ba4575050509183525050604080518082019182905260209092019190600984019060029082845b815481526020019060010190808311610bdc5750505050508152602001600b8201548152602001600c8201548152602001600d8201548152602001600e8201548152602001600f820154815260200160108201548152505090505b919050565b6000600360008581526007602052604090205460ff166003811115610c7157634e487b7160e01b600052602160045260246000fd5b14610c7e57506000610cd0565b6000848152600760205260409020600c015483118015610caf57506000848152600760205260409020600b01548311155b15610cbc57506000610cd0565b610ccd84848463ffffffff166127c8565b90505b9392505050565b600181565b6002546001600160a01b03163314610d0f5760405162461bcd60e51b8152600401610d06906132fa565b60405180910390fd5b60068054610100600160a81b0319166101006001600160a01b03841690810291909117909155604051631519959560e11b8152632a332b2a90610d56903090600401612e72565b600060405180830381600087803b158015610d7057600080fd5b505af1158015610d84573d6000803e3d6000fd5b50506006805460ff19166001179055505050565b60045481565b60035481565b600c60209081526000928352604080842090915290825290205481565b610dc9612849565b6001600160a01b0316610dda610e50565b6001600160a01b031614610e005760405162461bcd60e51b8152600401610d0690613157565b6001546040516000916001600160a01b0316907f8be0079c531659141344cd1fd0a4f28419497f9722a3daafe3b4186f6b6457e0908390a3600180546001600160a01b0319169055565b60035490565b6001546001600160a01b031690565b8051606090819060008167ffffffffffffffff811115610e8f57634e487b7160e01b600052604160045260246000fd5b604051908082528060200260200182016040528015610eb8578160200160208202803683370190505b50905060008267ffffffffffffffff811115610ee457634e487b7160e01b600052604160045260246000fd5b604051908082528060200260200182016040528015610f0d578160200160208202803683370190505b50905060005b8381101561105d5760086000888381518110610f3f57634e487b7160e01b600052603260045260246000fd5b6020026020010151815260200190815260200160002060000154838281518110610f7957634e487b7160e01b600052603260045260246000fd5b60200260200101818152505060006001600160a01b031660086000898481518110610fb457634e487b7160e01b600052603260045260246000fd5b6020908102919091018101518252810191909152604001600020600101546001600160a01b0316141561101857600182828151811061100357634e487b7160e01b600052603260045260246000fd5b9115156020928302919091019091015261104b565b600082828151811061103a57634e487b7160e01b600052603260045260246000fd5b911515602092830291909101909101525b80611055816135b9565b915050610f13565b50909350915050915091565b6002546001600160a01b031633146110935760405162461bcd60e51b8152600401610d06906132fa565b6003805460009081526007602052604090205460ff16818111156110c757634e487b7160e01b600052602160045260246000fd5b146110e45760405162461bcd60e51b8152600401610d069061320c565b806001600160a01b031663b37217a460035460045460405160200161110a929190612e4e565b60408051601f198184030181529082905280516020909101206001600160e01b031960e084901b16825261114091600401613410565b600060405180830381600087803b15801561115a57600080fd5b505af115801561116e573d6000803e3d6000fd5b50505050806001600160a01b031663a1c4f55a6040518163ffffffff1660e01b815260040160206040518083038186803b1580156111ab57600080fd5b505afa1580156111bf573d6000803e3d6000fd5b505050506040513d601f19601f820116820180604052508101906111e39190612dad565b5060068054610100600160a81b0319166101006001600160a01b038416908102919091179091556040517f383f8cb39dfa7c3fb901a460dd449ea924868f0a92ff03da64740fffa5f1de6290600090a250565b6002546001600160a01b031633146112605760405162461bcd60e51b8152600401610d06906132fa565b600260005414156112835760405162461bcd60e51b8152600401610d0690613298565b6002600055600160008281526007602052604090205460ff1660038111156112bb57634e487b7160e01b600052602160045260246000fd5b146112d85760405162461bcd60e51b8152600401610d06906131e2565b60008181526007602052604090206002015442116113085760405162461bcd60e51b8152600401610d069061326e565b6004546000828152600760205260409020600c015560065460ff16156113ca57600660019054906101000a90046001600160a01b03166001600160a01b031663b37217a482600454604051602001611361929190612e4e565b60408051601f198184030181529082905280516020909101206001600160e01b031960e084901b16825261139791600401613410565b600060405180830381600087803b1580156113b157600080fd5b505af11580156113c5573d6000803e3d6000fd5b505050505b60008181526007602052604090819020805460ff19166002179055600454905182917f3728e75294796694d59d2ffced9c394279baf7b9ebd2702db43f5f04bac67929916114189190613410565b60405180910390a2506001600055565b600b60209081526000938452604080852082529284528284209052825290205460ff1681565b611456612849565b6001600160a01b0316611467610e50565b6001600160a01b03161461148d5760405162461bcd60e51b8152600401610d0690613157565b6001600160a01b0381166114b35760405162461bcd60e51b8152600401610d0690613092565b600280546001600160a01b0319166001600160a01b0383161790556040517fc5b3733c5a02994439bfbf32a97020ad43809cf0ffcca971ffb2d48e3f1d5545906114fe908390612e72565b60405180910390a150565b60055481565b6115183361284d565b156115355760405162461bcd60e51b8152600401610d0690612f65565b3332146115545760405162461bcd60e51b8152600401610d0690613120565b600260005414156115775760405162461bcd60e51b8152600401610d0690613298565b6002600055600360008681526007602052604090205460ff1660038111156115af57634e487b7160e01b600052602160045260246000fd5b146115cc5760405162461bcd60e51b8152600401610d0690613063565b6000858152600760205260409020600201546115eb906203f480613443565b42111561160a5760405162461bcd60e51b8152600401610d0690612f93565b6000805b8481101561178457600086868381811061163857634e487b7160e01b600052603260045260246000fd5b90506020020135905080600760008a8152602001908152602001600020600c0154116116765760405162461bcd60e51b8152600401610d0690613038565b6000888152600760205260409020600b01548110156116a75760405162461bcd60e51b8152600401610d0690613320565b6000818152600860205260409020600101546001600160a01b031633146116e05760405162461bcd60e51b8152600401610d06906130f9565b600081815260086020526040812060010180546001600160a01b0319169055611744898388888781811061172457634e487b7160e01b600052603260045260246000fd5b90506020020160208101906117399190612d91565b63ffffffff166127c8565b9050806117635760405162461bcd60e51b8152600401610d0690613001565b61176d8185613443565b93505050808061177c906135b9565b91505061160e565b50604051339082156108fc029083906000818181858888f193505050506117aa57600080fd5b600086815260076020526040812060100180548392906117cb9084906135a2565b9091555050336000908152600c60209081526040808320898452909152812080548392906117fa908490613443565b9091555050604051869033907f0f5fca62da8fb5d95525b49e5eaa7b20bc6bd9e2f6b64b493442d1c0bd6ef486906118359085908990612e4e565b60405180910390a35050600160005550505050565b6118533361284d565b156118705760405162461bcd60e51b8152600401610d0690612f65565b33321461188f5760405162461bcd60e51b8152600401610d0690613120565b600260005414156118b25760405162461bcd60e51b8152600401610d0690613298565b6002600055600160008481526007602052604090205460ff1660038111156118ea57634e487b7160e01b600052602160045260246000fd5b146119075760405162461bcd60e51b8152600401610d06906131b5565b60008381526007602052604090206002015442106119375760405162461bcd60e51b8152600401610d069061318c565b600060018214156119545761194d836064613583565b9050611960565b60028214156119605750815b336000908152600b60209081526040808320878452825280832084845290915290205460ff16156119915750611b36565b60008481526007602052604090206003016119ad6001846135a2565b600281106119cb57634e487b7160e01b600052603260045260246000fd5b01546000858152600760205260408120600d0180549091906119ee908490613443565b9091555050336000908152600a60209081526040808320878452909152902054611a35576000848152600760205260408120600f01805491611a2f836135b9565b91905055505b60008481526009602090815260408083208484529091528120805491611a5a836135b9565b9091555050336000818152600a602090815260408083208884528252808320600480548254600180820185559387528587200155858552600b84528285208a865284528285208786528452828520805460ff191683179055825180840184528781528085019687528154865260089094529184209251835593519190930180546001600160a01b0319166001600160a01b0390921691909117905581549190611b02836135b9565b9091555050604051849033907fe23b461eeed3050b94c37e728bd38158dbcd40bb83994f44bfb639678c6a102990600090a3505b5050600160005550565b600a6020528260005260406000206020528160005260406000208181548110611b6857600080fd5b9060005260206000200160009250925050505481565b6002546001600160a01b03163314611ba85760405162461bcd60e51b8152600401610d06906132fa565b6003541580611be857506003805460009081526007602052604090205460ff1681811115611be657634e487b7160e01b600052602160045260246000fd5b145b611c045760405162461bcd60e51b8152600401610d0690612fca565b60208101518151611c159190613443565b61271014611c355760405162461bcd60e51b8152600401610d06906130c2565b60038054906000611c45836135b9565b9091555050604080516101a081019091528060018152602001428152602001848152602001838152602001828152602001604051806040016040528060008152602001600081525081526020016040518060400160405280600081526020016000815250815260200160045481526020016004548152602001600081526020016000815260200160008152602001600081525060076000600354815260200190815260200160002060008201518160000160006101000a81548160ff02191690836003811115611d2557634e487b7160e01b600052602160045260246000fd5b02179055506020820151816001015560408201518160020155606082015181600301906002611d5592919061299c565b506080820151611d6b906005830190600261299c565b5060a0820151611d81906007830190600261299c565b5060c0820151611d97906009830190600261299c565b5060e0820151600b820155610100820151600c820155610120820151600d820155610140820151600e820155610160820151600f820155610180909101516010909101556003546004546040517f7745060911034707e68f2069481cb119df60e1d0ca97cb79d00dadfd83f7ad1391611e139142918891612e5c565b60405180910390a2505050565b60065461010090046001600160a01b031681565b6002546001600160a01b031690565b6002546001600160a01b03163314611e6d5760405162461bcd60e51b8152600401610d06906132fa565b600354611e79576120dc565b6003546000908152600760205260409020600201544210801590611ed0575060016003805460009081526007602052604090205460ff1690811115611ece57634e487b7160e01b600052602160045260246000fd5b145b15611eeb57611ee0600354611236565b611eeb6003546120de565b600354600090815260076020526040902060020154611f0d906203f480613443565b4210158015611f4d57506003805460009081526007602052604090205460ff1681811115611f4b57634e487b7160e01b600052602160045260246000fd5b145b15611fcb5760035460009081526007602052604090206010015415611fcb57611f74610e50565b6003546000908152600760205260408082206010015490516001600160a01b03939093169281156108fc0292818181858888f19350505050611fb557600080fd5b6003546000908152600760205260408120601001555b600354600090815260076020526040902060020154611fec9061012c613443565b421015801561202c57506003805460009081526007602052604090205460ff168181111561202a57634e487b7160e01b600052602160045260246000fd5b145b156120dc57600060016120424262015180613443565b61204c91906135a2565b600380546000908152600760205260409081902081518083019092529293506120da9284920160028282826020028201915b81548152602001906001019080831161207e57505060035460009081526007602052604090819020815180830192839052945060050192506002915082845b8154815260200190600101908083116120bd575050505050611b7e565b505b565b6002546001600160a01b031633146121085760405162461bcd60e51b8152600401610d06906132fa565b6002600054141561212b5760405162461bcd60e51b8152600401610d0690613298565b600260008181558281526007602052604090205460ff16600381111561216157634e487b7160e01b600052602160045260246000fd5b1461217e5760405162461bcd60e51b8152600401610d06906132cf565b60065460009060ff16156122c357600660019054906101000a90046001600160a01b03166001600160a01b031663fbe5d9176040518163ffffffff1660e01b815260040160206040518083038186803b1580156121da57600080fd5b505afa1580156121ee573d6000803e3d6000fd5b505050506040513d601f19601f820116820180604052508101906122129190612c16565b82146122305760405162461bcd60e51b8152600401610d0690613243565b600660019054906101000a90046001600160a01b03166001600160a01b031663a1c4f55a6040518163ffffffff1660e01b815260040160206040518083038186803b15801561227e57600080fd5b505afa158015612292573d6000803e3d6000fd5b505050506040513d601f19601f820116820180604052508101906122b69190612dad565b63ffffffff1690506122ce565b6122cb612853565b90505b6000828152600760205260408120600d0154600554612710916122f091613583565b6122fa919061345b565b6000848152600760205260408120600d01549192509061231b9083906135a2565b90506060600080600a5b60078111156123cf576123396001826135a2565b612344906002613583565b61234f90600a6134b5565b612359908361345b565b92506123666001826135a2565b612371906002613583565b61237b9084613583565b61238590836135a2565b9150828461239483600a6135a2565b815181106123b257634e487b7160e01b600052603260045260246000fd5b6020908102919091010152806123c7816135b9565b915050612325565b506009600088815260200190815260200160002060008460008151811061240657634e487b7160e01b600052603260045260246000fd5b6020026020010151606461241a9190613583565b8152602001908152602001600020546007600089815260200190815260200160002060090160006002811061245f57634e487b7160e01b600052603260045260246000fd5b0155600087815260096020526040812084519091908590600290811061249557634e487b7160e01b600052603260045260246000fd5b6020026020010151815260200190815260200160002054600960008981526020019081526020016000206000856001815181106124e257634e487b7160e01b600052603260045260246000fd5b6020026020010151815260200190815260200160002054600960008a815260200190815260200160002060008660008151811061252f57634e487b7160e01b600052603260045260246000fd5b60200260200101518152602001908152602001600020546125509190613443565b61255a9190613443565b60008881526007602052604090206009016001015560005b60028163ffffffff1610156126605760008881526007602052604090206127109060090163ffffffff8316600281106125bb57634e487b7160e01b600052603260045260246000fd5b015460008a8152600760205260409020879060050163ffffffff8516600281106125f557634e487b7160e01b600052603260045260246000fd5b01546126019190613583565b61260b919061345b565b612615919061345b565b60008981526007602081905260409091200163ffffffff83166002811061264c57634e487b7160e01b600052603260045260246000fd5b015580612658816135d4565b915050612572565b506000878152600760205260409020600e8101879055805460ff1916600317815560100184905561268f610e50565b6001600160a01b03166108fc869081150290604051600060405180830381858888f193505050506126bf57600080fd5b6003547f5a724f8090e5112c7e2c0eca7eeba9abf1a26dfad55f3c06f87a281c6712add2876040516126f19190613410565b60405180910390a2505060016000555050505050565b61270f612849565b6001600160a01b0316612720610e50565b6001600160a01b0316146127465760405162461bcd60e51b8152600401610d0690613157565b6001600160a01b03811661276c5760405162461bcd60e51b8152600401610d0690612f1f565b6001546040516001600160a01b038084169216907f8be0079c531659141344cd1fd0a4f28419497f9722a3daafe3b4186f6b6457e090600090a3600180546001600160a01b0319166001600160a01b0392909216919091179055565b6000838152600760205260408120600e015481906127e89060b49061345b565b6000858152600860205260409020549091508082141561283e57600086815260076020819052604090912001846002811061283357634e487b7160e01b600052603260045260246000fd5b015492505050610cd0565b600092505050610cd0565b3390565b3b151590565b6002546000906001600160a01b031633146128805760405162461bcd60e51b8152600401610d06906132fa565b600080805b600a81101561291357600a4442836040516020016128a593929190612e5c565b6040516020818303038152906040528051906020012060001c6128c891906135f8565b6128d3906001613443565b91506128e0816002613583565b6128eb90600a6134b5565b6128f59083613583565b6128ff9084613443565b92508061290b816135b9565b915050612885565b509091505090565b604080516101a08101909152806000815260200160008152602001600081526020016129456129da565b81526020016129526129da565b815260200161295f6129da565b815260200161296c6129da565b81526020016000815260200160008152602001600081526020016000815260200160008152602001600081525090565b82600281019282156129ca579160200282015b828111156129ca5782518255916020019190600101906129af565b506129d69291506129f8565b5090565b60405180604001604052806002906020820280368337509192915050565b5b808211156129d657600081556001016129f9565b80356001600160a01b0381168114610c3757600080fd5b600082601f830112612a34578081fd5b6040516040810181811067ffffffffffffffff82111715612a5757612a57613638565b8060405250808385604086011115612a6d578384fd5b835b6002811015612a8e578135835260209283019290910190600101612a6f565b509195945050505050565b60008083601f840112612aaa578182fd5b50813567ffffffffffffffff811115612ac1578182fd5b6020830191508360208083028501011115612adb57600080fd5b9250929050565b600060208284031215612af3578081fd5b610cd082612a0d565b60008060408385031215612b0e578081fd5b612b1783612a0d565b946020939093013593505050565b600080600060608486031215612b39578081fd5b612b4284612a0d565b95602085013595506040909401359392505050565b60006020808385031215612b69578182fd5b823567ffffffffffffffff80821115612b80578384fd5b818501915085601f830112612b93578384fd5b813581811115612ba557612ba5613638565b8381029150612bb5848301613419565b8181528481019084860184860187018a1015612bcf578788fd5b8795505b83861015612bf1578035835260019590950194918601918601612bd3565b5098975050505050505050565b600060208284031215612c0f578081fd5b5035919050565b600060208284031215612c27578081fd5b5051919050565b60008060408385031215612c40578182fd5b82359150612c5060208401612a0d565b90509250929050565b600080600060a08486031215612c6d578283fd5b83359250612c7e8560208601612a24565b9150612c8d8560608601612a24565b90509250925092565b600080600080600060608688031215612cad578081fd5b85359450602086013567ffffffffffffffff80821115612ccb578283fd5b612cd789838a01612a99565b90965094506040880135915080821115612cef578283fd5b50612cfc88828901612a99565b969995985093965092949392505050565b60008060408385031215612d1f578182fd5b50508035926020909101359150565b600080600060608486031215612d42578283fd5b505081359360208301359350604090920135919050565b600080600060608486031215612d6d578081fd5b83359250602084013591506040840135612d868161364e565b809150509250925092565b600060208284031215612da2578081fd5b8135610cd08161364e565b600060208284031215612dbe578081fd5b8151610cd08161364e565b8060005b6002811015612dec578151845260209384019390910190600101612dcd565b50505050565b6000815180845260208085019450808401835b83811015612e2157815187529582019590820190600101612e05565b509495945050505050565b60048110612e4a57634e487b7160e01b600052602160045260246000fd5b9052565b918252602082015260400190565b9283526020830191909152604082015260600190565b6001600160a01b0391909116815260200190565b600060408252612e996040830185612df2565b828103602084810191909152845180835285820192820190845b81811015612ed1578451151583529383019391830191600101612eb3565b5090979650505050505050565b600060608252612ef16060830186612df2565b8281036020840152612f038186612df2565b915050826040830152949350505050565b901515815260200190565b60208082526026908201527f4f776e61626c653a206e6577206f776e657220697320746865207a65726f206160408201526564647265737360d01b606082015260800190565b60208082526014908201527310dbdb9d1c9858dd081b9bdd08185b1b1bddd95960621b604082015260600190565b6020808252601a908201527f436c61696d61626c6520706572696f6420697320656e6465642e000000000000604082015260600190565b60208082526019908201527f4e6f742074696d6520746f207374617274206c6f747465727900000000000000604082015260600190565b60208082526019908201527f4e6f207072697a6520666f72207468697320627261636b657400000000000000604082015260600190565b6020808252601190820152700a8d2c6d6cae892c840e8dede40d0d2ced607b1b604082015260600190565b6020808252601590820152744c6f7474657279206e6f7420636c61696d61626c6560581b604082015260600190565b60208082526016908201527543616e6e6f74206265207a65726f206164647265737360501b604082015260600190565b60208082526018908201527f52657761726473206d75737420657175616c2031303030300000000000000000604082015260600190565b6020808252600d908201526c2737ba103a34329037bbb732b960991b604082015260600190565b6020808252601a908201527f50726f787920636f6e7472616374206e6f7420616c6c6f776564000000000000604082015260600190565b6020808252818101527f4f776e61626c653a2063616c6c6572206973206e6f7420746865206f776e6572604082015260600190565b6020808252600f908201526e2637ba3a32b93c9034b99037bb32b960891b604082015260600190565b6020808252601390820152722637ba3a32b93c9034b9903737ba1037b832b760691b604082015260600190565b60208082526010908201526f2637ba3a32b93c903737ba1037b832b760811b604082015260600190565b60208082526018908201527f4c6f7474657279206e6f7420696e20636c61696d61626c650000000000000000604082015260600190565b602080825260119082015270273ab6b132b939903737ba10323930bbb760791b604082015260600190565b60208082526010908201526f2637ba3a32b93c903737ba1037bb32b960811b604082015260600190565b6020808252601f908201527f5265656e7472616e637947756172643a207265656e7472616e742063616c6c00604082015260600190565b6020808252601190820152704c6f7474657279206e6f7420636c6f736560781b604082015260600190565b6020808252600c908201526b2737ba1037b832b930ba37b960a11b604082015260600190565b60208082526010908201526f5469636b6574496420746f6f206c6f7760801b604082015260600190565b60006102208201905061335e828451612e2c565b602083015160208301526040830151604083015260608301516133846060840182612dc9565b50608083015161339760a0840182612dc9565b5060a08301516133aa60e0840182612dc9565b5060c08301516101206133bf81850183612dc9565b60e08501516101608581019190915261010086015161018080870191909152918601516101a08601526101408601516101c08601528501516101e08501529093015161020090920191909152919050565b90815260200190565b60405181810167ffffffffffffffff8111828210171561343b5761343b613638565b604052919050565b600082198211156134565761345661360c565b500190565b60008261346a5761346a613622565b500490565b80825b600180861161348157506134ac565b8187048211156134935761349361360c565b808616156134a057918102915b9490941c938002613472565b94509492505050565b6000610cd060001984846000826134ce57506001610cd0565b816134db57506000610cd0565b81600181146134f157600281146134fb57613528565b6001915050610cd0565b60ff84111561350c5761350c61360c565b6001841b9150848211156135225761352261360c565b50610cd0565b5060208310610133831016604e8410600b841016171561355b575081810a838111156135565761355661360c565b610cd0565b613568848484600161346f565b80860482111561357a5761357a61360c565b02949350505050565b600081600019048311821515161561359d5761359d61360c565b500290565b6000828210156135b4576135b461360c565b500390565b60006000198214156135cd576135cd61360c565b5060010190565b600063ffffffff808316818114156135ee576135ee61360c565b6001019392505050565b60008261360757613607613622565b500690565b634e487b7160e01b600052601160045260246000fd5b634e487b7160e01b600052601260045260246000fd5b634e487b7160e01b600052604160045260246000fd5b63ffffffff811681146120da57600080fdfea26469706673582212204662a2ee429b97b35f0786ca4bfa6fd11ac223f236c6656239dfeb6d95ba3ce764736f6c63430008000033",
    "sourcePath": "d:/My Project/HorseRace Betting/prj/contracts/RoyalBetting.sol",
    "compiler": {
        "name": "solc",
        "version": "0.8.0+commit.c7dfd78e"
    },
    "functionHashes": {
        "FIRST_THIRD_PLACE()": "2387217d",
        "WINNING_PLACE()": "3ac71c6a",
        "_isUserTicketIdsPerLotteryId(address,uint256,uint256)": "b0b5d608",
        "_numberTicketsPerLotteryId(uint256,uint256)": "1ebb8772",
        "_userTicketIdsPerLotteryId(address,uint256,uint256)": "cf17413b",
        "_userWiningRewardsPerLotteryId(address,uint256)": "6c0d4285",
        "buyTickets(uint256,uint256,uint256)": "c9a450df",
        "changeRandomGenerator(address)": "98359fa1",
        "checkLotteryState()": "ed17f8fe",
        "claimTickets(uint256,uint256[],uint32[])": "c914914f",
        "closeLottery(uint256)": "9d8ca531",
        "currentLotteryId()": "6be4097c",
        "currentTicketId()": "686465b8",
        "drawFinalNumberAndMakeLotteryClaimable(uint256)": "edd19b5d",
        "getBracketsOfMatching(uint256,address)": "17b4e9d4",
        "getOperator()": "e7f43c68",
        "operatorAddress()": "127effb2",
        "owner()": "8da5cb5b",
        "ownerTransferAmountRate()": "c76caf10",
        "randomGenerator()": "dcbad90d",
        "renounceOwnership()": "715018a6",
        "setOperator(address)": "b3ab15fb",
        "setRandomGenerator(address)": "4bc19fee",
        "startLottery(uint256,uint256[2],uint256[2])": "d635b350",
        "transferOwnership(address)": "f2fde38b",
        "viewCurrentLotteryId()": "80a06160",
        "viewLottery(uint256)": "2423807a",
        "viewNumbersAndStatusesForTicketIds(uint256[])": "8fc3539a",
        "viewRewardsForTicketId(uint256,uint256,uint32)": "2e530cae"
    },
    "gasEstimates": {
        "creation": {
            "codeDepositCost": "2794800",
            "executionCost": "86322",
            "totalCost": "2881122"
        },
        "external": {
            "FIRST_THIRD_PLACE()": "274",
            "WINNING_PLACE()": "340",
            "_isUserTicketIdsPerLotteryId(address,uint256,uint256)": "1479",
            "_numberTicketsPerLotteryId(uint256,uint256)": "1357",
            "_userTicketIdsPerLotteryId(address,uint256,uint256)": "2317",
            "_userWiningRewardsPerLotteryId(address,uint256)": "1390",
            "buyTickets(uint256,uint256,uint256)": "infinite",
            "changeRandomGenerator(address)": "infinite",
            "checkLotteryState()": "infinite",
            "claimTickets(uint256,uint256[],uint32[])": "infinite",
            "closeLottery(uint256)": "88680",
            "currentLotteryId()": "1118",
            "currentTicketId()": "1096",
            "drawFinalNumberAndMakeLotteryClaimable(uint256)": "infinite",
            "getBracketsOfMatching(uint256,address)": "infinite",
            "getOperator()": "1114",
            "operatorAddress()": "1117",
            "owner()": "1181",
            "ownerTransferAmountRate()": "1117",
            "randomGenerator()": "1192",
            "renounceOwnership()": "24319",
            "setOperator(address)": "23307",
            "setRandomGenerator(address)": "infinite",
            "startLottery(uint256,uint256[2],uint256[2])": "infinite",
            "transferOwnership(address)": "24600",
            "viewCurrentLotteryId()": "1117",
            "viewLottery(uint256)": "infinite",
            "viewNumbersAndStatusesForTicketIds(uint256[])": "infinite",
            "viewRewardsForTicketId(uint256,uint256,uint32)": "infinite"
        },
        "internal": {
            "_calculateRewardsForTicketId(uint256,uint256,uint256)": "2804",
            "_isContract(address)": "718",
            "generateTicketNumber()": "infinite"
        }
    }
}